:020000040800F2
:1000000000500020550C000871020008730200081F
:10001000750200087702000879020008000000005D
:100020000000000000000000000000007B0200084B
:100030007D020008000000007F0200088102000825
:100040009D0C00089D0C00089D0C00089D0C0008EC
:100050009D0C00089D0C00089D0C00089D0C0008DC
:100060009D0C00089D0C00089D0C00089D0C0008CC
:100070009D0C00089D0C00089D0C00089D0C0008BC
:100080009D0C00089D0C00089D0C00089D0C0008AC
:100090009D0C00089D0C00089D0C00089D0C00089C
:1000A0009D0C00089D0C00089D0C00089D0C00088C
:1000B0009D0C00089D0C00089D0C00089D0C00087C
:1000C0009D0C00089D0C00089D0C00089D0C00086C
:1000D0009D0C00089D0C00089D0C00089D0C00085C
:1000E0009D0C00089D0C00089D0C000800000000FD
:1000F0000000000000000000000000000000000000
:0C01000000000000000000005FF808F1A3
:10010C0010B5054C237833B9044B13B10448AFF345
:10011C0000800123237010BD0C00002000000000A3
:10012C00F80C000808B5034B1BB103490348AFF3A7
:10013C00008008BD0000000010000020F80C000832
:10014C0030B587B0002402940394049405940F4BAB
:10015C009A6942F010029A619B6903F010030193B3
:10016C00019B0B4D22464FF40051284600F05EFADD
:10017C004FF4005302930123039304940223059339
:10018C0002A9284600F044F907B030BD0010024027
:10019C000010014072B6FEE700B591B02822002194
:1001AC0006A800F076FD00230193029303930493B9
:1001BC0005930223069301220A9210220B920D93AF
:1001CC004FF460130F9306A800F056FA80B90F2372
:1001DC00019302210291002303934FF48062049255
:1001EC00059301A800F07AFC20B911B05DF804FB6E
:1001FC00FFF7D0FFFFF7CEFF08B500F067F8FFF769
:10020C00CBFFFFF79DFF4FF40051044800F014FAA8
:10021C004FF4FA7000F07EF8F5E700BF00100140D3
:10022C0082B00E4B9A6942F001029A619A6902F00F
:10023C0001020092009ADA6942F08052DA61DB69BD
:10024C0003F080530193019B054A536823F0E0634C
:10025C0043F08063536002B0704700BF001002404F
:10026C0000000140FEE7FEE7FEE7FEE7FEE7704711
:10027C007047704708B500F03BF808BD70470000A8
:10028C0010B504460E4B1A784FF47A73B3FBF2F3A5
:10029C000C4A1068B0FBF3F000F0A6F868B90F2C0C
:1002AC0001D901200AE0002221464FF0FF3000F076
:1002BC008BF8054B1C60002000E0012010BD00BF36
:1002CC0004000020000000200800002008B5074AA8
:1002DC00136843F010031360032000F063F80F2041
:1002EC00FFF7CEFFFFF79CFF002008BD0020024067
:1002FC00034A1168034B1B780B441360704700BF13
:10030C002800002004000020014B1868704700BF33
:10031C002800002038B50446FFF7F6FF0546B4F177
:10032C00FF3F02D0044B1B781C44FFF7EDFF401B32
:10033C00A042FAD338BD00BF04000020002808DB1F
:10034C000901C9B200F1604000F5614080F800136A
:10035C00704700F00F000901C9B2014B19547047E6
:10036C0014ED00E000B500F00700C0F1070CBCF183
:10037C00040F28BF4FF0040C031D062B0FD9C31E0E
:10038C004FF0FF3E0EFA0CF021EA000199400EFAF4
:10039C0003FE22EA0E0241EA02005DF804FB002390
:1003AC00EEE70000074AD36823F4E0631B041B0C40
:1003BC00000200F4E060034343F0BF6343F40033F6
:1003CC00D360704700ED00E010B50446054BD868CB
:1003DC00C0F30220FFF7C6FF01462046FFF7AEFF31
:1003EC0010BD00BF00ED00E00138B0F1807F0BD2F2
:1003FC004FF0E0235861054AF02182F823100020C9
:10040C00986107221A6170470120704700ED00E0E7
:10041C0070B582B00024A446A1E07E4DAB4214D04E
:10042C000CD8A5F58015AB420FD005F57025AB4265
:10043C000BD0A5F58015AB4210D106E0764DAB4242
:10044C0003D005F58035AB4208D18B68002B50D01A
:10045C00012B49D04261082400E0CC68BEF1FF0FAB
:10046C0049D806464FEA8C0233680F25954023EA9B
:10047C00050304FA02F2134333604B6813F0805FF8
:10048C006BD0664B9A6942F001029A619B6903F04A
:10049C0001030193019B4FEA9C02951C604B53F89E
:1004AC0025600CF00305AD000F23AB4026EA0306D4
:1004BC005C4B984226D003F58063984200F08C8008
:1004CC0003F58063984200F0898003F580639842BD
:1004DC0016D0042317E0CC680434BFE7CC6808348A
:1004EC00BCE7CC680C34B9E702610824B6E70024F9
:1004FC00B4E70424B2E7061DACF108029200B3E79E
:10050C00032300E00023AB4033430232444D45F853
:10051C0022304B6813F4801F62D0434A936843EA3D
:10052C000E0393604B6813F4001F5FD03E4AD368F0
:10053C0043EA0E03D3604B6813F4003F5CD03A4A95
:10054C00536843EA0E0353604B6813F4803F59D051
:10055C00354A136843EA0E0313600CF1010C0B6867
:10056C0033FA0CF254D0012202FA0CF203EA020E16
:10057C0032EA0303F1D14B68122B3FF64EAF122B2C
:10058C003FF66CAF01A555F823F000BF57040008E7
:10059C0067040008E9040008FB040008690400086B
:1005AC00690400086904000869040008690400086B
:1005BC00690400086904000869040008690400085B
:1005CC00690400086904000869040008690400084B
:1005DC00E3040008EF040008012394E7022392E7E8
:1005EC00114A936823EA0E0393609BE70E4AD36883
:1005FC0023EA0E03D3609EE70B4A536823EA0E03EB
:10060C005360A1E7084A136823EA0E031360A4E7BA
:10061C0002B070BD0000221000003110001002402A
:10062C000000014000080140000401400AB10161D2
:10063C007047090401617047C36801EA030221EAAB
:10064C00030141EA024101617047000082B0084B8E
:10065C001B68084AA2FB03235B0A00FB03F301930C
:10066C0000BF019B5A1E0192002BF9D102B07047BA
:10067C0000000020D34D6210002800F0F18170B50D
:10068C0082B00446036813F0010F2CD0994B5B68C1
:10069C0003F00C03042B1DD0964B5B6803F00C038A
:1006AC00082B12D06368B3F5803F41D0002B55D195
:1006BC0003F1804303F504331A6822F480321A6084
:1006CC001A6822F480221A6037E08A4B5B6813F4B4
:1006DC00803FE7D0874B1B6813F4003F03D063685F
:1006EC00002B00F0BF81236813F0020F75D0814BF3
:1006FC005B6813F00C0F5FD07E4B5B6803F00C0350
:10070C00082B54D02369002B00F08A807A4B0122ED
:10071C001A60FFF7F9FD0546764B1B6813F0020FC4
:10072C0075D1FFF7F1FD401B0228F5D903209EE19E
:10073C00704A136843F480331360636843B3FFF764
:10074C00E3FD05466B4B1B6813F4003FCBD1FFF761
:10075C00DBFD401B6428F5D9032088E1B3F5A02FFD
:10076C0009D0644B1A6822F480321A601A6822F499
:10077C0080221A60E1E703F18043A3F53C331A6849
:10078C0042F480221A601A6842F480321A60D4E76C
:10079C00FFF7BAFD0546574B1B6813F4003FA2D078
:1007AC00FFF7B2FD401B6428F5D903205FE1514BE4
:1007BC005B6813F4803FA5D14E4B1B6813F0020FFE
:1007CC0003D02369012B40F04F814A4A136823F070
:1007DC00F803616943EAC1031360236813F0080F3F
:1007EC0033D0A369002B5CD0434B0122C3F8802487
:1007FC00FFF78AFD05463F4B5B6A13F0020F21D1D0
:10080C00FFF782FD401B0228F5D903202FE1394A5E
:10081C00136823F0F803616943EAC1031360DCE752
:10082C00354B00221A60FFF76FFD0546314B1B68F4
:10083C0013F0020FD1D0FFF767FD401B0228F5D94A
:10084C00032014E10120FFF701FF236813F0040FCC
:10085C0000F09680274BDB6913F0805F34D1254B79
:10086C00DA6942F08052DA61DB6903F0805301935C
:10087C00019B0125214B1B6813F4807F26D0E36874
:10088C00012B3DD0002B53D103F1804303F50433EE
:10089C001A6A22F001021A621A6A22F004021A621F
:1008AC0033E0154B0022C3F88024FFF72DFD0546DD
:1008BC00104B5B6A13F0020FC7D0FFF725FD401BEE
:1008CC000228F5D90320D2E00025D3E70B4A1368A0
:1008DC0043F480731360FFF717FD0646074B1B6844
:1008EC0013F4807FCBD1FFF70FFD801B6428F5D963
:1008FC000320BCE0001002400000424200700040A7
:10090C005F4A136A43F001031362E36833B3FFF7E2
:10091C00FBFC06465A4B1B6A13F0020F2FD1FFF754
:10092C00F3FC801B41F288339842F3D903209EE0FC
:10093C00052B09D0524B1A6A22F001021A621A6A6C
:10094C0022F004021A62E0E74D4B1A6A42F00402EC
:10095C001A621A6A42F001021A62D6E7FFF7D4FC57
:10096C000646474B1B6A13F0020F08D0FFF7CCFC6E
:10097C00801B41F288339842F3D9032077E0E5B924
:10098C00E369002B72D03E4A526802F00C02082A2E
:10099C0056D0022B17D03B4B00221A66FFF7B4FC43
:1009AC000446374B1B6813F0007F47D0FFF7ACFCB5
:1009BC00001B0228F5D9032059E0314AD36923F0F2
:1009CC008053D361DCE72F4B00221A66FFF79CFCA7
:1009DC0005462B4B1B6813F0007F06D0FFF794FCE9
:1009EC00401B0228F5D9032041E0236AB3F5803F70
:1009FC001AD023494B6823F47413226A606A0243A9
:100A0C0013434B601F4B01221A66FFF77DFC044613
:100A1C001B4B1B6813F0007F0ED1FFF775FC001BFE
:100A2C000228F5D9032022E0154A536823F4003339
:100A3C00A1680B435360DCE7002018E0002016E0AF
:100A4C00012B16D00E4B5B6803F48031226A914265
:100A5C0011D103F47013626A93420ED1002006E0A8
:100A6C0001207047012002E0012000E0002002B0CC
:100A7C0070BD0120FBE70120F9E70120F7E700BF7B
:100A8C0000100240000042420F4B5B6803F00C0266
:100A9C00082A01D00D487047C3F383420C49885C87
:100AAC0013F4803F0BD0084B5B68C3F34043094AF7
:100ABC00D35C064A02FB00F0B0FBF3F07047064B28
:100ACC0003FB00F0704700BF0010024000127A00D8
:100ADC00240D0008200D000800093D00002800F03E
:100AEC00A08070B50D460446524B1B6803F00703FB
:100AFC008B420BD24F4A136823F007030B4313604E
:100B0C00136803F007038B4240F08D80236813F0C9
:100B1C00020F17D013F0040F04D0474A536843F464
:100B2C00E0635360236813F0080F04D0424A536803
:100B3C0043F460535360404A536823F0F003A168B8
:100B4C000B435360236813F0010F31D06368012B02
:100B5C0020D0022B25D0384A126812F0020F64D034
:100B6C0035494A6822F0030213434B60FFF7CCFB74
:100B7C000646314B5B6803F00C036268B3EB820FE3
:100B8C0016D0FFF7C1FB801B41F288339842F0D995
:100B9C00032045E0284A126812F4003FE0D10120FE
:100BAC003EE0254A126812F0007FD9D1012037E0CF
:100BBC00204B1B6803F00703AB420AD91D4A13688C
:100BCC0023F007032B431360136803F00703AB42B6
:100BDC002DD1236813F0040F06D0174A536823F461
:100BEC00E063E1680B435360236813F0080F07D0F0
:100BFC00114A536823F46053216943EAC1035360DB
:100C0C00FFF742FF0C4B5B68C3F303130B4AD35C37
:100C1C00D8400B4B18600B4B1868FFF731FB0020CA
:100C2C0070BD012070470120FAE70120F8E7012090
:100C3C00F6E700BF0020024000100240100D000833
:100C4C000000002008000020FFF718FB0B480C499F
:100C5C000C4A002302E0D458C4500433C4188C420C
:100C6C00F9D3094A094C002301E013600432A24273
:100C7C00FBD300F017F8FFF7BFFA70470000002015
:100C8C000C0000203C0D00080C0000202C00002063
:100C9C00FEE703460244934200D1704703F8011B60
:100CAC00F9E7000070B500260C4D0D4C641BA41028
:100CBC00A64209D100F01AF800260A4D0A4C641B12
:100CCC00A410A64205D170BD55F8043B98470136D7
:100CDC00EEE755F8043B98470136F2E7340D00086F
:100CEC00340D0008340D0008380D0008F8B500BFAD
:100CFC00F8BC08BC9E467047F8B500BFF8BC08BCF1
:040D0C009E46704748
:100D100000000000000000000102030406070809AB
:100D20000102000002030405060708090A0B0C0D66
:040D30000E0F101082
:040D34003101000881
:040D38000D010008A1
:0C0D3C000024F400010000001000000082
:0400000508000C558E
:00000001FF
